{
    "address": "0x35cA20b4c393dD3C425565E0DC2059Eebe9e1422",
    "abi": [
        {
            "inputs": [
                {
                    "internalType": "string",
                    "name": "_name",
                    "type": "string"
                },
                {
                    "internalType": "string",
                    "name": "_symbol",
                    "type": "string"
                }
            ],
            "stateMutability": "nonpayable",
            "type": "constructor"
        },
        {
            "anonymous": false,
            "inputs": [
                {
                    "indexed": true,
                    "internalType": "address",
                    "name": "account",
                    "type": "address"
                },
                {
                    "indexed": true,
                    "internalType": "address",
                    "name": "operator",
                    "type": "address"
                },
                {
                    "indexed": false,
                    "internalType": "bool",
                    "name": "approved",
                    "type": "bool"
                }
            ],
            "name": "ApprovalForAll",
            "type": "event"
        },
        {
            "anonymous": false,
            "inputs": [
                {
                    "indexed": true,
                    "internalType": "address",
                    "name": "previousOwner",
                    "type": "address"
                },
                {
                    "indexed": true,
                    "internalType": "address",
                    "name": "newOwner",
                    "type": "address"
                }
            ],
            "name": "OwnershipTransferred",
            "type": "event"
        },
        {
            "anonymous": false,
            "inputs": [
                {
                    "indexed": false,
                    "internalType": "uint256",
                    "name": "tokenId",
                    "type": "uint256"
                }
            ],
            "name": "TokenCreated",
            "type": "event"
        },
        {
            "anonymous": false,
            "inputs": [
                {
                    "indexed": true,
                    "internalType": "address",
                    "name": "operator",
                    "type": "address"
                },
                {
                    "indexed": true,
                    "internalType": "address",
                    "name": "from",
                    "type": "address"
                },
                {
                    "indexed": true,
                    "internalType": "address",
                    "name": "to",
                    "type": "address"
                },
                {
                    "indexed": false,
                    "internalType": "uint256[]",
                    "name": "ids",
                    "type": "uint256[]"
                },
                {
                    "indexed": false,
                    "internalType": "uint256[]",
                    "name": "values",
                    "type": "uint256[]"
                }
            ],
            "name": "TransferBatch",
            "type": "event"
        },
        {
            "anonymous": false,
            "inputs": [
                {
                    "indexed": true,
                    "internalType": "address",
                    "name": "operator",
                    "type": "address"
                },
                {
                    "indexed": true,
                    "internalType": "address",
                    "name": "from",
                    "type": "address"
                },
                {
                    "indexed": true,
                    "internalType": "address",
                    "name": "to",
                    "type": "address"
                },
                {
                    "indexed": false,
                    "internalType": "uint256",
                    "name": "id",
                    "type": "uint256"
                },
                {
                    "indexed": false,
                    "internalType": "uint256",
                    "name": "value",
                    "type": "uint256"
                }
            ],
            "name": "TransferSingle",
            "type": "event"
        },
        {
            "anonymous": false,
            "inputs": [
                {
                    "indexed": false,
                    "internalType": "string",
                    "name": "value",
                    "type": "string"
                },
                {
                    "indexed": true,
                    "internalType": "uint256",
                    "name": "id",
                    "type": "uint256"
                }
            ],
            "name": "URI",
            "type": "event"
        },
        {
            "inputs": [
                {
                    "internalType": "address",
                    "name": "account",
                    "type": "address"
                },
                {
                    "internalType": "uint256",
                    "name": "id",
                    "type": "uint256"
                }
            ],
            "name": "balanceOf",
            "outputs": [
                {
                    "internalType": "uint256",
                    "name": "",
                    "type": "uint256"
                }
            ],
            "stateMutability": "view",
            "type": "function"
        },
        {
            "inputs": [
                {
                    "internalType": "address[]",
                    "name": "accounts",
                    "type": "address[]"
                },
                {
                    "internalType": "uint256[]",
                    "name": "ids",
                    "type": "uint256[]"
                }
            ],
            "name": "balanceOfBatch",
            "outputs": [
                {
                    "internalType": "uint256[]",
                    "name": "",
                    "type": "uint256[]"
                }
            ],
            "stateMutability": "view",
            "type": "function"
        },
        {
            "inputs": [
                {
                    "internalType": "uint256",
                    "name": "price",
                    "type": "uint256"
                },
                {
                    "internalType": "string",
                    "name": "_uri",
                    "type": "string"
                },
                {
                    "internalType": "uint256",
                    "name": "supply",
                    "type": "uint256"
                }
            ],
            "name": "createToken",
            "outputs": [],
            "stateMutability": "nonpayable",
            "type": "function"
        },
        {
            "inputs": [
                {
                    "internalType": "uint256",
                    "name": "",
                    "type": "uint256"
                }
            ],
            "name": "creatorAddresses",
            "outputs": [
                {
                    "internalType": "address",
                    "name": "",
                    "type": "address"
                }
            ],
            "stateMutability": "view",
            "type": "function"
        },
        {
            "inputs": [
                {
                    "internalType": "address",
                    "name": "account",
                    "type": "address"
                },
                {
                    "internalType": "address",
                    "name": "operator",
                    "type": "address"
                }
            ],
            "name": "isApprovedForAll",
            "outputs": [
                {
                    "internalType": "bool",
                    "name": "",
                    "type": "bool"
                }
            ],
            "stateMutability": "view",
            "type": "function"
        },
        {
            "inputs": [
                {
                    "internalType": "uint256",
                    "name": "",
                    "type": "uint256"
                }
            ],
            "name": "maxSupply",
            "outputs": [
                {
                    "internalType": "uint256",
                    "name": "",
                    "type": "uint256"
                }
            ],
            "stateMutability": "view",
            "type": "function"
        },
        {
            "inputs": [
                {
                    "internalType": "uint256",
                    "name": "tokenId",
                    "type": "uint256"
                }
            ],
            "name": "mint",
            "outputs": [],
            "stateMutability": "payable",
            "type": "function"
        },
        {
            "inputs": [
                {
                    "internalType": "uint256",
                    "name": "",
                    "type": "uint256"
                }
            ],
            "name": "mintingActive",
            "outputs": [
                {
                    "internalType": "bool",
                    "name": "",
                    "type": "bool"
                }
            ],
            "stateMutability": "view",
            "type": "function"
        },
        {
            "inputs": [],
            "name": "name",
            "outputs": [
                {
                    "internalType": "string",
                    "name": "",
                    "type": "string"
                }
            ],
            "stateMutability": "view",
            "type": "function"
        },
        {
            "inputs": [],
            "name": "nextTokenId",
            "outputs": [
                {
                    "internalType": "uint256",
                    "name": "",
                    "type": "uint256"
                }
            ],
            "stateMutability": "view",
            "type": "function"
        },
        {
            "inputs": [],
            "name": "owner",
            "outputs": [
                {
                    "internalType": "address",
                    "name": "",
                    "type": "address"
                }
            ],
            "stateMutability": "view",
            "type": "function"
        },
        {
            "inputs": [],
            "name": "renounceOwnership",
            "outputs": [],
            "stateMutability": "nonpayable",
            "type": "function"
        },
        {
            "inputs": [
                {
                    "internalType": "address",
                    "name": "from",
                    "type": "address"
                },
                {
                    "internalType": "address",
                    "name": "to",
                    "type": "address"
                },
                {
                    "internalType": "uint256[]",
                    "name": "ids",
                    "type": "uint256[]"
                },
                {
                    "internalType": "uint256[]",
                    "name": "amounts",
                    "type": "uint256[]"
                },
                {
                    "internalType": "bytes",
                    "name": "data",
                    "type": "bytes"
                }
            ],
            "name": "safeBatchTransferFrom",
            "outputs": [],
            "stateMutability": "nonpayable",
            "type": "function"
        },
        {
            "inputs": [
                {
                    "internalType": "address",
                    "name": "from",
                    "type": "address"
                },
                {
                    "internalType": "address",
                    "name": "to",
                    "type": "address"
                },
                {
                    "internalType": "uint256",
                    "name": "id",
                    "type": "uint256"
                },
                {
                    "internalType": "uint256",
                    "name": "amount",
                    "type": "uint256"
                },
                {
                    "internalType": "bytes",
                    "name": "data",
                    "type": "bytes"
                }
            ],
            "name": "safeTransferFrom",
            "outputs": [],
            "stateMutability": "nonpayable",
            "type": "function"
        },
        {
            "inputs": [
                {
                    "internalType": "address",
                    "name": "operator",
                    "type": "address"
                },
                {
                    "internalType": "bool",
                    "name": "approved",
                    "type": "bool"
                }
            ],
            "name": "setApprovalForAll",
            "outputs": [],
            "stateMutability": "nonpayable",
            "type": "function"
        },
        {
            "inputs": [
                {
                    "internalType": "uint256",
                    "name": "tokenId",
                    "type": "uint256"
                },
                {
                    "internalType": "uint256",
                    "name": "supply",
                    "type": "uint256"
                }
            ],
            "name": "setMaxSupply",
            "outputs": [],
            "stateMutability": "nonpayable",
            "type": "function"
        },
        {
            "inputs": [
                {
                    "internalType": "uint256",
                    "name": "tokenId",
                    "type": "uint256"
                },
                {
                    "internalType": "uint256",
                    "name": "price",
                    "type": "uint256"
                }
            ],
            "name": "setTokenPrice",
            "outputs": [],
            "stateMutability": "nonpayable",
            "type": "function"
        },
        {
            "inputs": [
                {
                    "internalType": "uint256",
                    "name": "tokenId",
                    "type": "uint256"
                },
                {
                    "internalType": "string",
                    "name": "_uri",
                    "type": "string"
                }
            ],
            "name": "setTokenURI",
            "outputs": [],
            "stateMutability": "nonpayable",
            "type": "function"
        },
        {
            "inputs": [
                {
                    "internalType": "bytes4",
                    "name": "interfaceId",
                    "type": "bytes4"
                }
            ],
            "name": "supportsInterface",
            "outputs": [
                {
                    "internalType": "bool",
                    "name": "",
                    "type": "bool"
                }
            ],
            "stateMutability": "view",
            "type": "function"
        },
        {
            "inputs": [],
            "name": "symbol",
            "outputs": [
                {
                    "internalType": "string",
                    "name": "",
                    "type": "string"
                }
            ],
            "stateMutability": "view",
            "type": "function"
        },
        {
            "inputs": [
                {
                    "internalType": "uint256",
                    "name": "tokenId",
                    "type": "uint256"
                }
            ],
            "name": "toggleMintingActive",
            "outputs": [],
            "stateMutability": "nonpayable",
            "type": "function"
        },
        {
            "inputs": [
                {
                    "internalType": "uint256",
                    "name": "",
                    "type": "uint256"
                }
            ],
            "name": "tokenPrices",
            "outputs": [
                {
                    "internalType": "uint256",
                    "name": "",
                    "type": "uint256"
                }
            ],
            "stateMutability": "view",
            "type": "function"
        },
        {
            "inputs": [
                {
                    "internalType": "uint256",
                    "name": "",
                    "type": "uint256"
                }
            ],
            "name": "tokenURIs",
            "outputs": [
                {
                    "internalType": "string",
                    "name": "",
                    "type": "string"
                }
            ],
            "stateMutability": "view",
            "type": "function"
        },
        {
            "inputs": [
                {
                    "internalType": "uint256",
                    "name": "",
                    "type": "uint256"
                }
            ],
            "name": "totalSupply",
            "outputs": [
                {
                    "internalType": "uint256",
                    "name": "",
                    "type": "uint256"
                }
            ],
            "stateMutability": "view",
            "type": "function"
        },
        {
            "inputs": [
                {
                    "internalType": "address",
                    "name": "newOwner",
                    "type": "address"
                }
            ],
            "name": "transferOwnership",
            "outputs": [],
            "stateMutability": "nonpayable",
            "type": "function"
        },
        {
            "inputs": [
                {
                    "internalType": "uint256",
                    "name": "tokenId",
                    "type": "uint256"
                }
            ],
            "name": "uri",
            "outputs": [
                {
                    "internalType": "string",
                    "name": "",
                    "type": "string"
                }
            ],
            "stateMutability": "view",
            "type": "function"
        },
        {
            "inputs": [],
            "name": "withdrawETH",
            "outputs": [],
            "stateMutability": "nonpayable",
            "type": "function"
        }
    ],
    "transactionHash": "0xc41da65198ade3584d51eff1e4673cdc3f89e4bc324fef5483f0c7d43829894c",
    "args": [
        "Access",
        "ACCESS"
    ],
    "numDeployments": 1,
    "solcInputHash": "081595c904545a6e0cc10371e20b9b50",
    "bytecode": "0x60806040526000600b553480156200001657600080fd5b50604051620025d0380380620025d0833981016040819052620000399162000276565b604080516020810190915260008152620000538162000098565b506200005f33620000b1565b600160045581516200007990600c90602085019062000103565b5080516200008f90600d90602084019062000103565b5050506200031d565b8051620000ad90600290602084019062000103565b5050565b600380546001600160a01b038381166001600160a01b0319831681179093556040519116919082907f8be0079c531659141344cd1fd0a4f28419497f9722a3daafe3b4186f6b6457e090600090a35050565b8280546200011190620002e0565b90600052602060002090601f01602090048101928262000135576000855562000180565b82601f106200015057805160ff191683800117855562000180565b8280016001018555821562000180579182015b828111156200018057825182559160200191906001019062000163565b506200018e92915062000192565b5090565b5b808211156200018e576000815560010162000193565b634e487b7160e01b600052604160045260246000fd5b600082601f830112620001d157600080fd5b81516001600160401b0380821115620001ee57620001ee620001a9565b604051601f8301601f19908116603f01168101908282118183101715620002195762000219620001a9565b816040528381526020925086838588010111156200023657600080fd5b600091505b838210156200025a57858201830151818301840152908201906200023b565b838211156200026c5760008385830101525b9695505050505050565b600080604083850312156200028a57600080fd5b82516001600160401b0380821115620002a257600080fd5b620002b086838701620001bf565b93506020850151915080821115620002c757600080fd5b50620002d685828601620001bf565b9150509250929050565b600181811c90821680620002f557607f821691505b602082108114156200031757634e487b7160e01b600052602260045260246000fd5b50919050565b6122a3806200032d6000396000f3fe60806040526004361061019b5760003560e01c80638b606335116100ec578063e086e5ec1161008a578063e985e9c511610064578063e985e9c5146104df578063eb685c4714610528578063f242432a14610548578063f2fde38b1461056857600080fd5b8063e086e5ec1461047d578063e5afe3e614610492578063e8bfc93f146104bf57600080fd5b8063a0712d68116100c6578063a0712d68146103fd578063a22cb46514610410578063a230667b14610430578063bd85b0391461045057600080fd5b80638b6063351461039a5780638da5cb5b146103ca57806395d89b41146103e857600080fd5b806337da577c11610159578063715018a611610133578063715018a6146102f457806375794a3c146103095780637c0cc8b31461031f578063869f75941461036d57600080fd5b806337da577c146102875780634e1273f4146102a75780636c8b703f146102d457600080fd5b8062fdd58e146101a057806301ffc9a7146101d357806306fdde03146102035780630e89341c14610225578063162094c4146102455780632eb2c2d614610267575b600080fd5b3480156101ac57600080fd5b506101c06101bb366004611990565b610588565b6040519081526020015b60405180910390f35b3480156101df57600080fd5b506101f36101ee3660046119d0565b61061e565b60405190151581526020016101ca565b34801561020f57600080fd5b50610218610670565b6040516101ca9190611a41565b34801561023157600080fd5b50610218610240366004611a54565b6106fe565b34801561025157600080fd5b50610265610260366004611b24565b6107a0565b005b34801561027357600080fd5b50610265610282366004611c00565b61082a565b34801561029357600080fd5b506102656102a2366004611caa565b610876565b3480156102b357600080fd5b506102c76102c2366004611ccc565b6108f6565b6040516101ca9190611dc8565b3480156102e057600080fd5b506102186102ef366004611a54565b610a20565b34801561030057600080fd5b50610265610a39565b34801561031557600080fd5b506101c0600b5481565b34801561032b57600080fd5b5061035561033a366004611a54565b600a602052600090815260409020546001600160a01b031681565b6040516001600160a01b0390911681526020016101ca565b34801561037957600080fd5b506101c0610388366004611a54565b60086020526000908152604090205481565b3480156103a657600080fd5b506101f36103b5366004611a54565b60076020526000908152604090205460ff1681565b3480156103d657600080fd5b506003546001600160a01b0316610355565b3480156103f457600080fd5b50610218610a4d565b61026561040b366004611a54565b610a5a565b34801561041c57600080fd5b5061026561042b366004611ddb565b610d25565b34801561043c57600080fd5b5061026561044b366004611a54565b610d34565b34801561045c57600080fd5b506101c061046b366004611a54565b60096020526000908152604090205481565b34801561048957600080fd5b50610265610dc2565b34801561049e57600080fd5b506101c06104ad366004611a54565b60066020526000908152604090205481565b3480156104cb57600080fd5b506102656104da366004611e17565b610e56565b3480156104eb57600080fd5b506101f36104fa366004611e67565b6001600160a01b03918216600090815260016020908152604080832093909416825291909152205460ff1690565b34801561053457600080fd5b50610265610543366004611caa565b610f26565b34801561055457600080fd5b50610265610563366004611e9a565b610f9e565b34801561057457600080fd5b50610265610583366004611eff565b610fe3565b60006001600160a01b0383166105f85760405162461bcd60e51b815260206004820152602a60248201527f455243313135353a2061646472657373207a65726f206973206e6f742061207660448201526930b634b21037bbb732b960b11b60648201526084015b60405180910390fd5b506000908152602081815260408083206001600160a01b03949094168352929052205490565b60006001600160e01b03198216636cdb3d1360e11b148061064f57506001600160e01b031982166303a24d0760e21b145b8061066a57506301ffc9a760e01b6001600160e01b03198316145b92915050565b600c805461067d90611f1a565b80601f01602080910402602001604051908101604052809291908181526020018280546106a990611f1a565b80156106f65780601f106106cb576101008083540402835291602001916106f6565b820191906000526020600020905b8154815290600101906020018083116106d957829003601f168201915b505050505081565b600081815260056020526040902080546060919061071b90611f1a565b80601f016020809104026020016040519081016040528092919081815260200182805461074790611f1a565b80156107945780601f1061076957610100808354040283529160200191610794565b820191906000526020600020905b81548152906001019060200180831161077757829003601f168201915b50505050509050919050565b6000828152600a60205260409020546001600160a01b031633146108065760405162461bcd60e51b815260206004820152601860248201527f4f6e6c792063726561746f722063616e2073657420555249000000000000000060448201526064016105ef565b60008281526005602090815260409091208251610825928401906118db565b505050565b6001600160a01b038516331480610846575061084685336104fa565b6108625760405162461bcd60e51b81526004016105ef90611f55565b61086f8585858585611059565b5050505050565b61087e611236565b6000828152600a60205260409020546001600160a01b031633146108e45760405162461bcd60e51b815260206004820152601f60248201527f4f6e6c792063726561746f722063616e20736574206d617820737570706c790060448201526064016105ef565b60009182526008602052604090912055565b6060815183511461095b5760405162461bcd60e51b815260206004820152602960248201527f455243313135353a206163636f756e747320616e6420696473206c656e677468604482015268040dad2e6dac2e8c6d60bb1b60648201526084016105ef565b6000835167ffffffffffffffff81111561097757610977611a6d565b6040519080825280602002602001820160405280156109a0578160200160208202803683370190505b50905060005b8451811015610a18576109eb8582815181106109c4576109c4611fa3565b60200260200101518583815181106109de576109de611fa3565b6020026020010151610588565b8282815181106109fd576109fd611fa3565b6020908102919091010152610a1181611fcf565b90506109a6565b509392505050565b6005602052600090815260409020805461067d90611f1a565b610a41611236565b610a4b6000611290565b565b600d805461067d90611f1a565b610a626112e2565b60008181526005602052604081208054610a7b90611f1a565b905011610ab85760405162461bcd60e51b815260206004820152600b60248201526a155492481b9bdd081cd95d60aa1b60448201526064016105ef565b60008181526007602052604090205460ff16610b0b5760405162461bcd60e51b81526020600482015260126024820152714d696e74696e67206e6f742061637469766560701b60448201526064016105ef565b610b153382610588565b15610b535760405162461bcd60e51b815260206004820152600e60248201526d105b1c9958591e481b5a5b9d195960921b60448201526064016105ef565b6000818152600a60205260409020546001600160a01b0316610baf5760405162461bcd60e51b815260206004820152601560248201527414185e5959481859191c995cdcc81b9bdd081cd95d605a1b60448201526064016105ef565b60008181526008602052604090205415610c205760008181526008602090815260408083205460099092529091205410610c205760405162461bcd60e51b815260206004820152601260248201527113585e081cdd5c1c1b1e481c995858da195960721b60448201526064016105ef565b6000818152600660205260409020543414610c6f5760405162461bcd60e51b815260206004820152600f60248201526e496e636f72726563742076616c756560881b60448201526064016105ef565b6000818152600a60205260408082205490516001600160a01b039091169034908381818185875af1925050503d8060008114610cc7576040519150601f19603f3d011682016040523d82523d6000602084013e610ccc565b606091505b505090506001600960008481526020019081526020016000206000828254610cf49190611fea565b92505081905550610d17338360016040518060200160405280600081525061133c565b50610d226001600455565b50565b610d30338383611450565b5050565b610d3c611236565b6000818152600a60205260409020546001600160a01b03163314610da25760405162461bcd60e51b815260206004820152601f60248201527f4f6e6c792063726561746f722063616e20746f67676c65206d696e74696e670060448201526064016105ef565b6000908152600760205260409020805460ff19811660ff90911615179055565b610dca611236565b6040514790600090339083908381818185875af1925050503d8060008114610e0e576040519150601f19603f3d011682016040523d82523d6000602084013e610e13565b606091505b5050905080610d305760405162461bcd60e51b815260206004820152600f60248201526e15da5d1a191c985dc819985a5b1959608a1b60448201526064016105ef565b600b80546000818152600660209081526040808320889055935482526005815292902084519192610e8a92908601906118db565b50600b8054600090815260086020908152604080832086905583548352600a825280832080546001600160a01b031916331790558354835260079091528120805460ff19166001908117909155825490929190610ee8908490611fea565b90915550506040518181527f5871761b381266e7e47309f0821d5b396364ebb6371d878871cac5393cb93ea89060200160405180910390a150505050565b6000828152600a60205260409020546001600160a01b03163314610f8c5760405162461bcd60e51b815260206004820152601a60248201527f4f6e6c792063726561746f722063616e2073657420707269636500000000000060448201526064016105ef565b60009182526006602052604090912055565b6001600160a01b038516331480610fba5750610fba85336104fa565b610fd65760405162461bcd60e51b81526004016105ef90611f55565b61086f8585858585611531565b610feb611236565b6001600160a01b0381166110505760405162461bcd60e51b815260206004820152602660248201527f4f776e61626c653a206e6577206f776e657220697320746865207a65726f206160448201526564647265737360d01b60648201526084016105ef565b610d2281611290565b81518351146110bb5760405162461bcd60e51b815260206004820152602860248201527f455243313135353a2069647320616e6420616d6f756e7473206c656e677468206044820152670dad2e6dac2e8c6d60c31b60648201526084016105ef565b6001600160a01b0384166110e15760405162461bcd60e51b81526004016105ef90612002565b3360005b84518110156111c857600085828151811061110257611102611fa3565b60200260200101519050600085838151811061112057611120611fa3565b602090810291909101810151600084815280835260408082206001600160a01b038e1683529093529190912054909150818110156111705760405162461bcd60e51b81526004016105ef90612047565b6000838152602081815260408083206001600160a01b038e8116855292528083208585039055908b168252812080548492906111ad908490611fea565b92505081905550505050806111c190611fcf565b90506110e5565b50846001600160a01b0316866001600160a01b0316826001600160a01b03167f4a39dc06d4c0dbc64b70af90fd698a233a518aa5d07e595d983b8c0526c8f7fb8787604051611218929190612091565b60405180910390a461122e81878787878761165b565b505050505050565b6003546001600160a01b03163314610a4b5760405162461bcd60e51b815260206004820181905260248201527f4f776e61626c653a2063616c6c6572206973206e6f7420746865206f776e657260448201526064016105ef565b600380546001600160a01b038381166001600160a01b0319831681179093556040519116919082907f8be0079c531659141344cd1fd0a4f28419497f9722a3daafe3b4186f6b6457e090600090a35050565b600260045414156113355760405162461bcd60e51b815260206004820152601f60248201527f5265656e7472616e637947756172643a207265656e7472616e742063616c6c0060448201526064016105ef565b6002600455565b6001600160a01b03841661139c5760405162461bcd60e51b815260206004820152602160248201527f455243313135353a206d696e7420746f20746865207a65726f206164647265736044820152607360f81b60648201526084016105ef565b3360006113a8856117c6565b905060006113b5856117c6565b90506000868152602081815260408083206001600160a01b038b168452909152812080548792906113e7908490611fea565b909155505060408051878152602081018790526001600160a01b03808a1692600092918716917fc3d58168c5ae7397731d063d5bbf3d657854427343f4c083240f7aacaa2d0f62910160405180910390a461144783600089898989611811565b50505050505050565b816001600160a01b0316836001600160a01b031614156114c45760405162461bcd60e51b815260206004820152602960248201527f455243313135353a2073657474696e6720617070726f76616c20737461747573604482015268103337b91039b2b63360b91b60648201526084016105ef565b6001600160a01b03838116600081815260016020908152604080832094871680845294825291829020805460ff191686151590811790915591519182527f17307eab39ab6107e8899845ad3d59bd9653f200f220920489ca2b5937696c31910160405180910390a3505050565b6001600160a01b0384166115575760405162461bcd60e51b81526004016105ef90612002565b336000611563856117c6565b90506000611570856117c6565b90506000868152602081815260408083206001600160a01b038c168452909152902054858110156115b35760405162461bcd60e51b81526004016105ef90612047565b6000878152602081815260408083206001600160a01b038d8116855292528083208985039055908a168252812080548892906115f0908490611fea565b909155505060408051888152602081018890526001600160a01b03808b16928c821692918816917fc3d58168c5ae7397731d063d5bbf3d657854427343f4c083240f7aacaa2d0f62910160405180910390a4611650848a8a8a8a8a611811565b505050505050505050565b6001600160a01b0384163b1561122e5760405163bc197c8160e01b81526001600160a01b0385169063bc197c819061169f90899089908890889088906004016120bf565b602060405180830381600087803b1580156116b957600080fd5b505af19250505080156116e9575060408051601f3d908101601f191682019092526116e69181019061211d565b60015b611796576116f561213a565b806308c379a0141561172f575061170a612156565b806117155750611731565b8060405162461bcd60e51b81526004016105ef9190611a41565b505b60405162461bcd60e51b815260206004820152603460248201527f455243313135353a207472616e7366657220746f206e6f6e2d455243313135356044820152732932b1b2b4bb32b91034b6b83632b6b2b73a32b960611b60648201526084016105ef565b6001600160e01b0319811663bc197c8160e01b146114475760405162461bcd60e51b81526004016105ef906121e0565b6040805160018082528183019092526060916000919060208083019080368337019050509050828160008151811061180057611800611fa3565b602090810291909101015292915050565b6001600160a01b0384163b1561122e5760405163f23a6e6160e01b81526001600160a01b0385169063f23a6e61906118559089908990889088908890600401612228565b602060405180830381600087803b15801561186f57600080fd5b505af192505050801561189f575060408051601f3d908101601f1916820190925261189c9181019061211d565b60015b6118ab576116f561213a565b6001600160e01b0319811663f23a6e6160e01b146114475760405162461bcd60e51b81526004016105ef906121e0565b8280546118e790611f1a565b90600052602060002090601f016020900481019282611909576000855561194f565b82601f1061192257805160ff191683800117855561194f565b8280016001018555821561194f579182015b8281111561194f578251825591602001919060010190611934565b5061195b92915061195f565b5090565b5b8082111561195b5760008155600101611960565b80356001600160a01b038116811461198b57600080fd5b919050565b600080604083850312156119a357600080fd5b6119ac83611974565b946020939093013593505050565b6001600160e01b031981168114610d2257600080fd5b6000602082840312156119e257600080fd5b81356119ed816119ba565b9392505050565b6000815180845260005b81811015611a1a576020818501810151868301820152016119fe565b81811115611a2c576000602083870101525b50601f01601f19169290920160200192915050565b6020815260006119ed60208301846119f4565b600060208284031215611a6657600080fd5b5035919050565b634e487b7160e01b600052604160045260246000fd5b601f8201601f1916810167ffffffffffffffff81118282101715611aa957611aa9611a6d565b6040525050565b600082601f830112611ac157600080fd5b813567ffffffffffffffff811115611adb57611adb611a6d565b604051611af2601f8301601f191660200182611a83565b818152846020838601011115611b0757600080fd5b816020850160208301376000918101602001919091529392505050565b60008060408385031215611b3757600080fd5b82359150602083013567ffffffffffffffff811115611b5557600080fd5b611b6185828601611ab0565b9150509250929050565b600067ffffffffffffffff821115611b8557611b85611a6d565b5060051b60200190565b600082601f830112611ba057600080fd5b81356020611bad82611b6b565b604051611bba8282611a83565b83815260059390931b8501820192828101915086841115611bda57600080fd5b8286015b84811015611bf55780358352918301918301611bde565b509695505050505050565b600080600080600060a08688031215611c1857600080fd5b611c2186611974565b9450611c2f60208701611974565b9350604086013567ffffffffffffffff80821115611c4c57600080fd5b611c5889838a01611b8f565b94506060880135915080821115611c6e57600080fd5b611c7a89838a01611b8f565b93506080880135915080821115611c9057600080fd5b50611c9d88828901611ab0565b9150509295509295909350565b60008060408385031215611cbd57600080fd5b50508035926020909101359150565b60008060408385031215611cdf57600080fd5b823567ffffffffffffffff80821115611cf757600080fd5b818501915085601f830112611d0b57600080fd5b81356020611d1882611b6b565b604051611d258282611a83565b83815260059390931b8501820192828101915089841115611d4557600080fd5b948201945b83861015611d6a57611d5b86611974565b82529482019490820190611d4a565b96505086013592505080821115611d8057600080fd5b50611b6185828601611b8f565b600081518084526020808501945080840160005b83811015611dbd57815187529582019590820190600101611da1565b509495945050505050565b6020815260006119ed6020830184611d8d565b60008060408385031215611dee57600080fd5b611df783611974565b915060208301358015158114611e0c57600080fd5b809150509250929050565b600080600060608486031215611e2c57600080fd5b83359250602084013567ffffffffffffffff811115611e4a57600080fd5b611e5686828701611ab0565b925050604084013590509250925092565b60008060408385031215611e7a57600080fd5b611e8383611974565b9150611e9160208401611974565b90509250929050565b600080600080600060a08688031215611eb257600080fd5b611ebb86611974565b9450611ec960208701611974565b93506040860135925060608601359150608086013567ffffffffffffffff811115611ef357600080fd5b611c9d88828901611ab0565b600060208284031215611f1157600080fd5b6119ed82611974565b600181811c90821680611f2e57607f821691505b60208210811415611f4f57634e487b7160e01b600052602260045260246000fd5b50919050565b6020808252602e908201527f455243313135353a2063616c6c6572206973206e6f7420746f6b656e206f776e60408201526d195c881bdc88185c1c1c9bdd995960921b606082015260800190565b634e487b7160e01b600052603260045260246000fd5b634e487b7160e01b600052601160045260246000fd5b6000600019821415611fe357611fe3611fb9565b5060010190565b60008219821115611ffd57611ffd611fb9565b500190565b60208082526025908201527f455243313135353a207472616e7366657220746f20746865207a65726f206164604082015264647265737360d81b606082015260800190565b6020808252602a908201527f455243313135353a20696e73756666696369656e742062616c616e636520666f60408201526939103a3930b739b332b960b11b606082015260800190565b6040815260006120a46040830185611d8d565b82810360208401526120b68185611d8d565b95945050505050565b6001600160a01b0386811682528516602082015260a0604082018190526000906120eb90830186611d8d565b82810360608401526120fd8186611d8d565b9050828103608084015261211181856119f4565b98975050505050505050565b60006020828403121561212f57600080fd5b81516119ed816119ba565b600060033d11156121535760046000803e5060005160e01c5b90565b600060443d10156121645790565b6040516003193d81016004833e81513d67ffffffffffffffff816024840111818411171561219457505050505090565b82850191508151818111156121ac5750505050505090565b843d87010160208285010111156121c65750505050505090565b6121d560208286010187611a83565b509095945050505050565b60208082526028908201527f455243313135353a204552433131353552656365697665722072656a656374656040820152676420746f6b656e7360c01b606082015260800190565b6001600160a01b03868116825285166020820152604081018490526060810183905260a060808201819052600090612262908301846119f4565b97965050505050505056fea2646970667358221220fd3c1c0f79ce525d8c4e0ef2f67b60edafc3472de1586f0aed34f9be061cd5c864736f6c63430008090033",
    "libraries": {},
    "devdoc": {
        "kind": "dev",
        "methods": {
            "balanceOf(address,uint256)": {
                "details": "See {IERC1155-balanceOf}. Requirements: - `account` cannot be the zero address."
            },
            "balanceOfBatch(address[],uint256[])": {
                "details": "See {IERC1155-balanceOfBatch}. Requirements: - `accounts` and `ids` must have the same length."
            },
            "isApprovedForAll(address,address)": {
                "details": "See {IERC1155-isApprovedForAll}."
            },
            "mint(uint256)": {
                "details": "Mint a particular tokenId "
            },
            "owner()": {
                "details": "Returns the address of the current owner."
            },
            "renounceOwnership()": {
                "details": "Leaves the contract without owner. It will not be possible to call `onlyOwner` functions anymore. Can only be called by the current owner. NOTE: Renouncing ownership will leave the contract without an owner, thereby removing any functionality that is only available to the owner."
            },
            "safeBatchTransferFrom(address,address,uint256[],uint256[],bytes)": {
                "details": "See {IERC1155-safeBatchTransferFrom}."
            },
            "safeTransferFrom(address,address,uint256,uint256,bytes)": {
                "details": "See {IERC1155-safeTransferFrom}."
            },
            "setApprovalForAll(address,bool)": {
                "details": "See {IERC1155-setApprovalForAll}."
            },
            "setMaxSupply(uint256,uint256)": {
                "details": "Set token's max supply "
            },
            "setTokenPrice(uint256,uint256)": {
                "details": "Set a price for a token"
            },
            "setTokenURI(uint256,string)": {
                "details": "Set the metadata for a token",
                "params": {
                    "_uri": "The metadata uri (e.g. ipfs://...)",
                    "tokenId": "The token ID"
                }
            },
            "supportsInterface(bytes4)": {
                "details": "See {IERC165-supportsInterface}."
            },
            "toggleMintingActive(uint256)": {
                "details": "Set the minting active flag"
            },
            "transferOwnership(address)": {
                "details": "Transfers ownership of the contract to a new account (`newOwner`). Can only be called by the current owner."
            },
            "uri(uint256)": {
                "details": "Return the URI for a token"
            },
            "withdrawETH()": {
                "details": "Withdraw ether to owner's wallet"
            }
        },
        "version": 1
    },
    "userdoc": {
        "kind": "user",
        "methods": {},
        "version": 1
    },
    "storageLayout": {
        "storage": [
            {
                "astId": 192,
                "contract": "contracts/Access.sol:Access",
                "label": "_balances",
                "offset": 0,
                "slot": "0",
                "type": "t_mapping(t_uint256,t_mapping(t_address,t_uint256))"
            },
            {
                "astId": 198,
                "contract": "contracts/Access.sol:Access",
                "label": "_operatorApprovals",
                "offset": 0,
                "slot": "1",
                "type": "t_mapping(t_address,t_mapping(t_address,t_bool))"
            },
            {
                "astId": 200,
                "contract": "contracts/Access.sol:Access",
                "label": "_uri",
                "offset": 0,
                "slot": "2",
                "type": "t_string_storage"
            },
            {
                "astId": 7,
                "contract": "contracts/Access.sol:Access",
                "label": "_owner",
                "offset": 0,
                "slot": "3",
                "type": "t_address"
            },
            {
                "astId": 123,
                "contract": "contracts/Access.sol:Access",
                "label": "_status",
                "offset": 0,
                "slot": "4",
                "type": "t_uint256"
            },
            {
                "astId": 1970,
                "contract": "contracts/Access.sol:Access",
                "label": "tokenURIs",
                "offset": 0,
                "slot": "5",
                "type": "t_mapping(t_uint256,t_string_storage)"
            },
            {
                "astId": 1974,
                "contract": "contracts/Access.sol:Access",
                "label": "tokenPrices",
                "offset": 0,
                "slot": "6",
                "type": "t_mapping(t_uint256,t_uint256)"
            },
            {
                "astId": 1978,
                "contract": "contracts/Access.sol:Access",
                "label": "mintingActive",
                "offset": 0,
                "slot": "7",
                "type": "t_mapping(t_uint256,t_bool)"
            },
            {
                "astId": 1982,
                "contract": "contracts/Access.sol:Access",
                "label": "maxSupply",
                "offset": 0,
                "slot": "8",
                "type": "t_mapping(t_uint256,t_uint256)"
            },
            {
                "astId": 1986,
                "contract": "contracts/Access.sol:Access",
                "label": "totalSupply",
                "offset": 0,
                "slot": "9",
                "type": "t_mapping(t_uint256,t_uint256)"
            },
            {
                "astId": 1990,
                "contract": "contracts/Access.sol:Access",
                "label": "creatorAddresses",
                "offset": 0,
                "slot": "10",
                "type": "t_mapping(t_uint256,t_address)"
            },
            {
                "astId": 1993,
                "contract": "contracts/Access.sol:Access",
                "label": "nextTokenId",
                "offset": 0,
                "slot": "11",
                "type": "t_uint256"
            },
            {
                "astId": 1995,
                "contract": "contracts/Access.sol:Access",
                "label": "name",
                "offset": 0,
                "slot": "12",
                "type": "t_string_storage"
            },
            {
                "astId": 1997,
                "contract": "contracts/Access.sol:Access",
                "label": "symbol",
                "offset": 0,
                "slot": "13",
                "type": "t_string_storage"
            }
        ],
        "types": {
            "t_address": {
                "encoding": "inplace",
                "label": "address",
                "numberOfBytes": "20"
            },
            "t_bool": {
                "encoding": "inplace",
                "label": "bool",
                "numberOfBytes": "1"
            },
            "t_mapping(t_address,t_bool)": {
                "encoding": "mapping",
                "key": "t_address",
                "label": "mapping(address => bool)",
                "numberOfBytes": "32",
                "value": "t_bool"
            },
            "t_mapping(t_address,t_mapping(t_address,t_bool))": {
                "encoding": "mapping",
                "key": "t_address",
                "label": "mapping(address => mapping(address => bool))",
                "numberOfBytes": "32",
                "value": "t_mapping(t_address,t_bool)"
            },
            "t_mapping(t_address,t_uint256)": {
                "encoding": "mapping",
                "key": "t_address",
                "label": "mapping(address => uint256)",
                "numberOfBytes": "32",
                "value": "t_uint256"
            },
            "t_mapping(t_uint256,t_address)": {
                "encoding": "mapping",
                "key": "t_uint256",
                "label": "mapping(uint256 => address)",
                "numberOfBytes": "32",
                "value": "t_address"
            },
            "t_mapping(t_uint256,t_bool)": {
                "encoding": "mapping",
                "key": "t_uint256",
                "label": "mapping(uint256 => bool)",
                "numberOfBytes": "32",
                "value": "t_bool"
            },
            "t_mapping(t_uint256,t_mapping(t_address,t_uint256))": {
                "encoding": "mapping",
                "key": "t_uint256",
                "label": "mapping(uint256 => mapping(address => uint256))",
                "numberOfBytes": "32",
                "value": "t_mapping(t_address,t_uint256)"
            },
            "t_mapping(t_uint256,t_string_storage)": {
                "encoding": "mapping",
                "key": "t_uint256",
                "label": "mapping(uint256 => string)",
                "numberOfBytes": "32",
                "value": "t_string_storage"
            },
            "t_mapping(t_uint256,t_uint256)": {
                "encoding": "mapping",
                "key": "t_uint256",
                "label": "mapping(uint256 => uint256)",
                "numberOfBytes": "32",
                "value": "t_uint256"
            },
            "t_string_storage": {
                "encoding": "bytes",
                "label": "string",
                "numberOfBytes": "32"
            },
            "t_uint256": {
                "encoding": "inplace",
                "label": "uint256",
                "numberOfBytes": "32"
            }
        }
    }
}